:020000040800F2
:100000000020002061040008A7040008A9040008DB
:10001000AB040008AD040008AF04000800000000B5
:10002000000000000000000000000000B104000813
:10003000B304000800000000B5040008B70400087D
:10004000BB040008BD040008BF040008C104000888
:10005000C3040008C5040008C7040008C904000858
:10006000CB040008CD040008CF040008D104000828
:10007000D3040008D5040008D7040008D9040008F8
:10008000DB040008DD040008DF04000800000000B5
:10009000000000000000000000000000E104000873
:1000A000E3040008E5040008E7040008E904000888
:1000B000EB040008ED04000800000000EF04000855
:1000C000F10400080000000000000000F304000834
:1000D00000000000F5040008F7040008000000001C
:1000E000F9040008FB040008FD04000800000000FB
:1000F0000000000000000000000000000000000000
:1001000000000000000000000000000000000000EF
:100110000000000000000000FF04000801050008C6
:1001200010B5054C237833B9044B13B10448AFF331
:1001300000800123237010BD940000200000000007
:1001400098060008084B10B51BB108490848AFF3E2
:1001500000800848036803B910BD074B002BFBD093
:10016000BDE81040184700BF0000000098000020C4
:10017000980600089400002000000000154B002B9A
:1001800008BF134B9D46A3F5803A00218B460F46CE
:100190001348144A121A00F065FA0F4B002B00D0D6
:1001A00098470E4B002B00D09847002000210400F8
:1001B0000D000D48002802D00C48AFF3008000F07D
:1001C0002BFA2000290000F015F900F011FA00BF09
:1001D00000000800002000200000000000000000D7
:1001E00094000020B4000020000000000000000087
:1001F00008B56FF0040000F071F8084B084A1B685E
:100200000848A2FB0323C3F38753C3EB431203EB5A
:1002100082020549D20003700A8008BD2800002030
:1002200083DE1B43B0000020B20000200D4B10B451
:1002300019460D4A0024128800FB02F058609C60A9
:100240001A6842F001021A600B68064A03F00113B3
:10025000012BF9D01368002123F001031360916092
:1002600010BC704710E000E0B2000020F0B50D4C6B
:1002700083B004F1280710260325E068012100F06F
:10028000ABF82389606801A914348DF807608DF8F4
:100290000650ADF8043000F02DF8BC42EDD103B0AB
:1002A000F0BD00BF00000020044B00EB800003EB1A
:1002B000800001890122406800F088B80000002019
:1002C000054B00EB800003EB800042680189D36896
:1002D0004B40D360704700BF00000020044A042850
:1002E00013680CBF43F0040323F00403136070474A
:1002F00010E000E0CB782DE9F04103F00F06DB06BB
:1003000048BF8B780C8848BF1E4314F0FF0F26D0DF
:100310000568002301274FF00F0803E00133082B85
:100320001BD00C8807FA03F232EA0404F6D19C00D1
:1003300091F803E008FA04FC25EA0C0506FA04F437
:10034000BEF1280F45EA040538D0BEF1480F03F18D
:10035000010308BF0261082BE3D105600C88FF2C64
:100360002AD94568002301274FF00F0C03E0013321
:10037000082B20D00C8803F1080207FA02F232EAB7
:100380000404F4D191F803E09C00BEF1280F04BFEF
:10039000426191F803E00CFA04F8BEF1480F03F152
:1003A000010325EA080506FA04F408BF0261082BD8
:1003B00045EA0405DED14560BDE8F0814261ADE764
:1003C0008368194214BF0120002070470AB94161B7
:1003D00070470161704700BF29B9054A936923EA54
:1003E000000090617047024B9A6910439861704712
:1003F0000010024000B583B000F088F8FFF7F8FE67
:10040000FFF734FF01210420FFF7E6FF0422012457
:1004100002230DEB02011148ADF804408DF80720CE
:100420008DF80630FFF766FF09E00020FFF73CFF7C
:100430000120FFF745FF4FF4FA70FFF7F7FE0121A7
:100440000648FFF7BDFF04460028EED10120FFF764
:100450002BFF2046FFF734FFEDE700BF0008014007
:100460000649074A074B9A42BEBF51F8040B42F8AF
:10047000040BF8E70448804704480047A406000836
:1004800000000020940000200D0500087D010008F8
:100490001C491D4A002301E041F8043B9142FBD373
:1004A000FFF7A8FFFEE7FEE7FEE7FEE7FEE7FEE751
:1004B000FEE7FEE7FEE7FEE7FEE7FEE7FEE7FEE714
:1004C000FEE7FEE7FEE7FEE7FEE7FEE7FEE7FEE704
:1004D000FEE7FEE7FEE7FEE7FEE7FEE7FEE7FEE7F4
:1004E000FEE7FEE7FEE7FEE7FEE7FEE7FEE7FEE7E4
:1004F000FEE7FEE7FEE7FEE7FEE7FEE7FEE7FEE7D4
:10050000FEE7000094000020B400002030B4354B1A
:100510003549186882B040F0010018605D6800201D
:100520002940596019684FF41F0421F0847121F4A7
:100530008031196019681A4621F4802119605968C0
:1005400021F4FE0159609C60D86200900190196806
:1005500041F48031196003E0009BB3F5A06F09D02E
:10056000136803F400330193009B01330093019B54
:10057000002BF1D01B4B1B6813F4003318BF012371
:100580000193019B012B06D0184B4FF000629A603B
:1005900002B030BC7047134B19465A685A605A680B
:1005A0005A605A685A605A6822F47C125A605A6833
:1005B00042F498125A601A6842F080721A600B680E
:1005C000084A9B01FBD51146536823F0030353608F
:1005D000536843F0020353604B6803F00C03082B8D
:1005E000FAD1D1E7001002400000FFF800ED00E072
:1005F00008B5074B044613B10021AFF30080054B4B
:100600001868836A03B19847204600F033F800BFAA
:1006100000000000940600080E4B70B51E460E4CFC
:100620000025E41AA410A54204D056F825309847B6
:100630000135F8E700F020F8084B094C1E46E41A93
:10064000A4100025A54204D056F82530984701355E
:10065000F8E770BD8C0000208C0000208C0000208A
:100660009000002003460244934202D003F8011B8D
:10067000FAE77047FEE70000F8B500BFF8BC08BC19
:100680009E467047F8B500BFF8BC08BC9E46704750
:0C069000430000002C00002000000000CF
:08069C00E0FAFF7F01000000FD
:1006A40000000000001001400002000010000000E3
:1006B40000000000010000000010014000010000E3
:1006C400100000000000000000366E010000000071
:1006D4000000000000000000000000000000000016
:1006E4000000000000000000000000009006000868
:1006F40000000000000000000000000000000000F6
:1007040000000000000000000000000000000000E5
:1007140000000000000000000000000000000000D5
:100724000000000000000000000000004501000877
:040734002101000897
:0400000508000000EF
:00000001FF
